:100000000C947D010C9434090C94C4010C94C4012B
:100010000C94C4010C94C4010C94C4010C94C4014C
:100020000C94C4010C94C4010C94201B0C94F21B7E
:100030000C9473160C94C4010C94C4010C94C40168
:100040000C94C4010C94C4010C94C4010C94C4011C
:100050000C94C4010C94C0160C94C4010C94C401FB
:100060000C94C4010C94C4010C94C4010C94C401FC
:100070000C94C4010C94C4010C94C4010C94C401EC
:100080000C94C4010C94C4010C94C4010C94C401DC
:100090000C94C4010C94C4010C94C4010C94C401CC
:1000A0000C94C4010C94C4010C94C401640C640C41
:1000B000960C960CE30C170E170E170E010D960DED
:1000C000A70DA70D070E170E170E100EB30EB30EC9
:1000D000C50EC50EBC0EC50EC50EC50EB30EB30EB5
:1000E000C10EC50EC50EC10E5F1C861C7E1D861C72
:1000F0007E1DD21CF51C7E1D4C1D5B1D35001F0096
:1001000020002100220023002F001E0014001A00EE
:100110000800150017004A002B0004001600070015
:1001200009000A004D00E1001D001B000600190037
:1001300005004C0000000000E000E2002A0028005A
:10014000015131002D002700260025002400300039
:100150002E00130012000C0018001C004B0034008D
:1001600033000F000E000D000B004E00E5003800BC
:100170003700360010001100E70000000000E40026
:10018000E6002C00290001514C053B003C003D00DD
:100190003E003F0000003A000000460047004800D3
:1001A000A9004A002B000000000000000000AA0087
:1001B0004D00E1000000000000000000A800350430
:1001C00000000000E000E2002A00280001004900D1
:1001D0004400430042004100400000004500000090
:1001E00000005200000000004B00000000004F0023
:1001F0005100500000004E00E5000000000000002B
:1002000000000000E70000000000E400E6002C0011
:100210002900010012034500720067006F004400CE
:1002200061007300680000000C034F006D006B005C
:100230006200640000000403090409023B0002019B
:1002400000A0FA09040000010301010009211101C5
:1002500000012240000705810308000A090401008B
:1002600001030000000921110100012232000705ED
:10027000820320000A1201100100000008EDFE6058
:100280006000010102000105010980A10185031937
:10029000012AB700150126B700950175108100C02D
:1002A000050C0901A101850419012AA002150126E6
:1002B000A002950175108100C005010906A1010584
:1002C0000719E029E71500250195087501810295B8
:1002D00001750881010507190029FF150026FF0097
:1002E0009506750881000508190129059505750110
:1002F0009102950175039101C00011241FBECFEF3B
:10030000DAE0DEBFCDBF04B603FE27C080915C02F9
:1003100090915D02A0915E02B0915F028730904B98
:10032000A740B04BD1F410925C0210925D02109283
:100330005E0210925F0214BE84B7877F84BF0FB63F
:10034000F894A89580916000886180936000109275
:1003500060000FBEE0E0F8E3099511E0A0E0B1E035
:10036000E8EFFBE302C005900D92AA38B107D9F778
:1003700022E0AAE8B1E001C01D92AC35B207E1F776
:100380000E9460180C94FA1D0C9400000C949704C1
:10039000089581E0089581E008950C94CB010895BB
:1003A0000C94CF011F93CF93DF9300D000D01F9206
:1003B000CDB7DEB749835A836B833091AC01898115
:1003C0009A81311114C0662359F0222349F00E940A
:1003D000EF13182F682F89819A810E94981303C008
:1003E0000E94C313182F69817A81812F04C00E9453
:1003F000EF1369817A810F900F900F900F900F90FB
:10040000DF91CF911F910C948302FC01262F408134
:1004100051816281738184810C94D201CF93DF93E7
:10042000EC0160E00E940502BE01DF91CF910C94C7
:10043000D0010E942115811102C00E94C8150C94A0
:10044000C6010C9495040E94A10E0E94C8012FEFD2
:1004500084E39CE0215080409040E1F700C0000020
:100460000C94E6160F931F93CF93DF93EC0161E09A
:100470000E9405028C01BE010E94CD01882349F132
:10048000BE01C8010E94DD06882319F1BE01C80122
:100490000E942F078823E9F0BE01C8010E945A0874
:1004A0008823B9F08A81882369F001158CE5180743
:1004B00031F00F3D1C4531F40E94C8150AC00E945E
:1004C000230207C0CE01DF91CF911F910F910C94B1
:1004D000C90180E0DF91CF911F910F910895089598
:1004E0000C946F0281E008950C947202CF93C82F90
:1004F0000E9470028C2F0E947402CF91089580E0B8
:1005000090E00895089526E4829FC0011124FC0123
:1005100027E0729FE00DF11D1124E60FF11DEE0F93
:10052000FF1FE450FF4F859194910895880F991F04
:10053000FC01EC5EFD4F859194910895CF93DF937C
:100540000E9483020E94B003EC018115904508F0DF
:1005500043C0C11580E4D80708F0CBC0C03ED10528
:1005600028F5C03CD10508F0B3C0C83AD10578F4ED
:10057000C53AD10508F0A4C0C130D10509F4ECC0DA
:1005800008F4E8C0C430D10508F0E6C0E3C0CF3BB2
:10059000D10508F0DFC0C85AD0E0CC0FDD1FCA5E1D
:1005A000DE4F0990D881C02DD464D6C0C11590E229
:1005B000D90750F4C11521E0D20708F0CDC0C83EDC
:1005C000D10508F4C9C0C6C0C11580E3D80708F03A
:1005D00086C0CE019F707FC0C11595E5D90708F090
:1005E00043C0C11524E5D20708F09AC0C11582E5C1
:1005F000D80708F5C11591E5D90708F07DC0CE01EF
:1006000074E0969587957A95E1F783709C2F9370A7
:1006100021E030E002C0220F331F9A95E2F73C68D8
:10062000382BCF70C695C69580E2C89FE001112493
:10063000C22BD32B91C09E01237033278C2F86951C
:100640008695C115D34508F05CC0C1E0D0E002C07A
:10065000CC0FDD1F2A95E2F720E2829FC001112412
:10066000C82BD92BDC6878C0C11529E5D207A0F4C6
:10067000C11588E5D80708F058C0C11596E5D90717
:1006800008F068C08C2F0E9444048F71C82FD0E0FE
:10069000DC2FCC27D06260C0C1152AE5D20708F450
:1006A00049C0CE0190568115904208F053C08D2F5D
:1006B0008F710E944404DD27D0628F71D82B4CC00B
:1006C000C55AD0E0CC5BDE4FC881D0E0D06444C0D6
:1006D000CE01805C91090E949602EC013DC0CE01E2
:1006E0009927D3FF03C0EC01D86C36C0EC01D06C65
:1006F00033C0DF70D06A30C0DC2FCC27C16FD06A26
:100700002BC0C1E0D0E002C0CC0FDD1F2A95E2F77C
:1007100020E2829FC0011124C82BD92BDA681CC0AB
:10072000DC2FCC27C46FD06A17C0DC2FCC27C06F5A
:10073000D06A12C08C2F8F700E94440494E0D6952A
:10074000C7959A95E1F7CF70D0E0DC2FCC27D06920
:10075000C82B02C0C0E0D0E0CE01DF91CF91089558
:100760008238910569F1B0F48133910509F46DC0C7
:1007700048F48932910509F463C08A32910509F47D
:1007800069C008958533910509F455C089339105F1
:10079000B9F00895833E910569F138F4803E9105E2
:1007A000B1F0823E910509F10895863E9105A9F1C7
:1007B000873E9105B9F1843E910509F064C023C0DC
:1007C00020914D0220FD4FC021FD4DC00895809124
:1007D0004D0280FD44C080914E0280FF44C0809154
:1007E0004D0284FD42C083EE4DC080914D0282FFD8
:1007F00038C0F5CF80914D0282FD33C080914E020A
:1008000080FD31C0ECCF80914E0281FF32C08091DB
:100810004D0284FD2AC087EE35C080914D0283FFD2
:1008200026C0F5CF80914D0283FD21C080914E02FC
:1008300081FD1FC0ECCF80914D0285FD1CC01DC005
:1008400080914D0285FD19C016C080914D0286FD34
:1008500016C017C080914D0286FD13C010C089E3F9
:1008600011C082EE0FC080EE0DC080E00BC086EE9E
:1008700009C084EE07C089E205C085E303C08AE2AF
:1008800001C081E390E0089590914D0292FF0DC068
:10089000282F2871283019F4877F846006C0282FFC
:1008A0002471243011F48B7F886093FF0DC0282FB2
:1008B0002871283119F4877E846106C0282F24719D
:1008C000243111F48B7E886120914E0220FF0DC0EF
:1008D000382F3871383019F4877F816006C0382F7F
:1008E0003171313011F48E7F886021FF0DC0282FC7
:1008F0002871283119F4877E816106C0282F217163
:10090000213111F48E7E886194FD877E0895E82F51
:10091000F0E0E35CFD4F80810895089580EA8A95B8
:10092000F1F7089508950C9492040C9493040C9498
:100930009204F894E82FE295EF70F0E031A1282FAF
:100940002F7081E090E001C0880F2A95EAF7982F78
:100950009095932391A392A1892B82A378940895D3
:1009600008950F931F93CF93DF930E94FE0580910C
:10097000000180910001811102C095E001C090E06A
:100980009093480285E0891B8093470284E90E9486
:10099000990487E90E94990486EC0E94990484E3F3
:1009A0000E94990485E30E949904C7E4D1E00EE413
:1009B00011E089910E9499040C171D07D1F7E3E318
:1009C000F2E0ADE3B2E011921D9282E0ED33F80760
:1009D000D1F785E00E94A8050E941902DF91CF910E
:1009E0001F910F910C9408060E94DF05882309F1DE
:1009F0008091470290E0835C9D4F0E941B0681110D
:100A000014C080918A018F5F80938A01863078F0CC
:100A1000E0914702F0E0E35CFD4F80E090E011924E
:100A2000019685309105D9F702C010928A010C9485
:100A300021028091480290E0835C9D4F0E9436061F
:100A40000C94B0048F929F92AF92BF92CF92DF929C
:100A5000EF92FF920F931F93CF93DF938EE4A82E14
:100A600081E0B82EC3E3D2E093E5E92E91E0F92EC0
:100A7000912C01E010E06501F5018081F894E82FE8
:100A8000E295EF70F0E021A18F70A80102C0440F41
:100A9000551F8A95E2F7CA01922F982B91A392A134
:100AA0008095892382A378940E948E04E7E4F1E084
:100AB00020E030E0812C4191A42FA295AF70B0E0EE
:100AC00090968C9190E04F7002C0959587954A95CD
:100AD000E2F780FD07C0802F022E01C0880F0A9424
:100AE000EAF701C080E0882A2F5F3F4F27303105A9
:100AF00011F75FEFA51AB50AF60180810E949904EB
:100B00008881881619F0888281E001C080E0982AE7
:100B10002196EA14FB0409F0AECF6091480270E020
:100B2000635C7D4F292D45E083E392E00E94A90597
:100B30000E94F404892DDF91CF911F910F91FF90B6
:100B4000EF90DF90CF90BF90AF909F908F900895DF
:100B50000895FF920F931F93CF93DF938C01F62E8E
:100B6000D72FC42F222349F081E080938D010E946A
:100B7000A51690938C0180938B0180918D01882321
:100B8000C1F080918B0190918C010E94B116069763
:100B900080F0EF2DFD2FD8014C2F50E0CD01801BB0
:100BA000910B841795071CF48D918193F7CF1092C8
:100BB0008D01DF91CF911F910F91FF90089580914A
:100BC0008E01811112C08091D80080618093D8007D
:100BD0008AE18A95F1F700C08091D90080FD02C0BA
:100BE00082E001C081E080938E0181E090918E01CE
:100BF000913009F080E008950C94DF050E94FC0517
:100C0000809300010E94DF0581110C940F06089566
:100C10000E94DF05811102C00C941506089561E061
:100C200070E081E091E00C94E60861E070E081E022
:100C300091E00C94ED08CF93DF93D82FC92F0E9439
:100C40008509892B79F4ED2FFC2F80E090E0DC0101
:100C5000A057BE4F2C912193019685309105B9F78D
:100C600081E001C080E0DF91CF91089520E030E085
:100C7000FC014191CF01F901E057FE4F40832F5F06
:100C80003F4F25303105A1F70895AF92BF92CF9223
:100C9000DF92EF92FF920F931F93CF93DF937C012C
:100CA0005B01C42FD22FFC0182818823F9F040938D
:100CB00097010E94A516909396018093950180E27A
:100CC0008C0F883008F06EC0C77081E001C0880FBB
:100CD000CA95EAF7DF91CF911F910F91FF90EF90A6
:100CE000DF90CF90BF90AF900C94200C8091970133
:100CF000481335C080919501909196010E94B116DC
:100D00006C01B701C5010E945A11C816D90638F501
:100D100010E21D0FCD17B9F080E28C0F883040F43F
:100D2000C77081E001C0880FCA95EAF70E94270CBE
:100D3000183058F581E09D2F977001C0880F9A9563
:100D4000EAF70E94200C802F0E940D0C183050F5FD
:100D5000D77081E001C0880FDA95EAF70AC080E217
:100D60008C0F8830F8F4C77081E001C0880FCA95F5
:100D7000EAF7DF91CF911F910F91FF90EF90DF90F5
:100D8000CF90BF90AF900C94270C802FDF91CF9124
:100D90001F910F91FF90EF90DF90CF90BF90AF9099
:100DA0000C940D0CDF91CF911F910F91FF90EF905C
:100DB000DF90CF90BF90AF9008950F939C01CB012F
:100DC000243F4CE5340731F188F4293DFCE53F0729
:100DD000D9F02A3D4CE5340779F1283D3C45A9F589
:100DE00006E221EE41EE68ED7CE52BC0263FFCE5F6
:100DF0003F07E1F0A8F0273F3C4539F507E225EE33
:100E000046EE67EF7CE51DC007E225EE45EE69ED95
:100E10007CE517C006E221EE40EE64EF7CE511C0F0
:100E200007E225EE44EE65EF7CE50BC006E221EE1D
:100E300042EE66EF7CE505C008E221E045EE6AED92
:100E40007CE50E94450680E008C0FC018281882381
:100E500019F01092970101C081E00F910895CF938E
:100E6000DF93EC01FB018281882309F41FC1C230AA
:100E7000FCE5DF0708F41BC1C6319CE5D90738F053
:100E80009E012B5F3C452930310508F010C10E94BE
:100E9000341590934E0280934D02C031ECE5DE078D
:100EA00009F4C3C008F041C0C8308CE5D80709F484
:100EB0009AC0F0F4C430ECE5DE0709F487C068F4AA
:100EC000C2308CE5D80709F477C0C330DC4509F09F
:100ED000E3C080914D02826076C0C630ECE5DE074B
:100EE00009F46EC008F07BC080914D0288606BC031
:100EF000CC308CE5D80709F485C068F4CA30ECE53D
:100F0000DE0709F474C008F079C00E94A10E809138
:100F10004D02806858C0CE308CE5D80709F476C001
:100F200008F07FC080914D028BC0CC3FECE5DE071E
:100F300009F44FC018F5C3318CE5D80709F47DC01A
:100F400078F4C131ECE5DE0709F473C0C231DC4549
:100F500009F0A2C00E94A10E80914D028F7733C08C
:100F6000C5318CE5D80709F472C008F486C0CB3FC0
:100F7000DC4509F091C080914E023EC0C115FDE5EF
:100F8000DF0709F45FC058F4CE3F9CE5D90709F4A8
:100F900044C008F43FC080914E0282602DC0C23030
:100FA000FDE5DF0709F475C008F45DC0C330DD4519
:100FB00009F072C080E06EC080914D02816003C074
:100FC00080914D02806180934D0266C080914D02F8
:100FD00011C080914E02826080934E025DC080916C
:100FE0004D028062F0CF80914D028064ECCF809101
:100FF0004D0288608460E7CF8160EECF80914D0222
:101000008E7FE1CF80914D028D7FDDCF80914D02AB
:10101000877FD9CF80914E0218C080914E028D7F7C
:10102000DBCF80914D028F7ECECF80914D028F7DA0
:10103000CACF80914D028F7BC6CF80914D02877FB2
:101040008B7FC1CF80914E028D7F8E7FC5CF8091E7
:101050004D0282FB222720F991E0922790FB82F932
:1010600090FB83F9B0CF80914E02982F90959170AC
:101070008E7F892B90FB81F9AFCF0E94A10E8091CA
:101080004D0287FB222720F991E0922790FB87F9F8
:101090009ACF81E00E94CA1580914D0290914E0234
:1010A0000E9445150E94A10E80E001C081E0DF9101
:1010B000CF910895CF93DF9386319C4541F5EB01A5
:1010C0000E947014982F8A812091090130910A01A1
:1010D000882379F09A7A81E009F480E0809398017E
:1010E000911102C069E201C065E3C9010E941116B5
:1010F0000AC080919801811102C069E201C065E3D4
:10110000C9010E9413160E94BE1480E001C081E054
:10111000DF91CF9108958EE1489B02C08150E1F7A5
:10112000489BFECF0895589880E28A95F1F7589A27
:101130000895FC012AE02A95F1F728E090E080E08C
:1011400031E040E14A95F1F7880F489B02C0816089
:10115000932700C0000040E14A95F1F7215089F73C
:1011600020E12A95F1F729B100C0000030E13A955D
:10117000F1F7217092272081920F90830895EF92CA
:10118000FF920F931F93CF93DF931F92CDB7DEB7DC
:1011900019828C017C01E60EF11C0E151F0551F021
:1011A0000E948B08CE0101960E949908F801819354
:1011B0008F01F3CF81E09981911180E00F90DF9151
:1011C000CF911F910F91FF90EF90089590939A0106
:1011D00080939901509A589A089590939A01809318
:1011E00099015098589AE89AE9E6F0E080818C7F5E
:1011F00080830895615091E001C0990F6A95EAF7E4
:1012000020E031E0992361F0492F482319F0589AE2
:10121000232701C0589840E24A95F1F79695F2CFFE
:10122000222311F0589A01C0589880E28A95F1F76C
:1012300058980895FF920F931F93CF93DF93EC017B
:101240008C01060F111DC017D10741F0F9900E94C3
:10125000930868E08F2D0E94FA08F5CFDF91CF91B7
:101260001F910F91FF9008951F920F920FB60F924A
:1012700011242F933F934F935F936F937F938F939B
:101280009F93AF93BF93CF93DF93EF93FF935898C0
:10129000509AC0919901D0919A016D81662321F0F5
:1012A0008E819F810E941A090E94930880E18A958D
:1012B000F1F758985098589A80E18A95F1F76A8129
:1012C000662351F08B819C810E94BF08E881F981DF
:1012D000811104C082E003C0E881F98188E0808345
:1012E0000E948B08FF91EF91DF91CF91BF91AF9159
:1012F0009F918F917F916F915F914F913F912F912E
:101300000F900FBE0F901F901895CF93DF93C09151
:101310009901D0919A01F894509A589885E08A954D
:10132000F1F700005098589A80E28A95F1F7489BAF
:101330000AC0509A589AE881F98181E080837894B4
:1013400081E090E02CC06D81662381F08E819F81C9
:101350000E94BF0881110AC0509A589AE881F98109
:1013600082E08083789482E090E019C00E948B082C
:1013700080E28A95F1F75898509A80E18A95F1F7C2
:101380006A81662321F08B819C810E941A090E9448
:101390009308E881F9811082789480E090E0DF91F1
:1013A000CF9108959093A00180939F010895E091BB
:1013B0009F01F091A001309721F00190F081E02D84
:1013C000099480E00895E0919F01F091A001309789
:1013D00021F00280F381E02D0994089520919D0170
:1013E00030919E012817390771F090939E018093E8
:1013F0009D01E0919F01F091A001309721F00680BE
:10140000F781E02D0994089520919B0130919C0172
:101410002817390771F090939C0180939B01E0910C
:101420009F01F091A001309721F00084F185E02D1B
:101430000994089585B7806885BF85B7806885BFA2
:1014400008950C94DF0508950C94230A0C94230A44
:101450000C94260A0C94230A0C942A0A0C94230A4E
:101460000E941A0A0E942E0A0C942C0A0E949C16B2
:101470000E94B1040E94F7160C94280AAF92BF9202
:10148000CF92DF92EF92FF920F931F93CF93DF9350
:10149000CDB7DEB72A970FB6F894DEBF0FBECDBF2B
:1014A0000E94240A0E94230A0E9422050E94210A07
:1014B000811111C08FEF89838A831B820E94A51638
:1014C0008160782F9D838C8349815A816B818D81C6
:1014D0000E94D80A40C082EAA82E81E0B82E00E01F
:1014E00010E0C02E802F0E948704E82EF501D190D5
:1014F0005F01D82631F40F5F1F4F0A30110589F7BD
:10150000D9CF8091270281FD0E948D0480E0FF24C5
:10151000F3949D2D9F21D1F08E83CF82EF2081E027
:1015200009F480E088870E94A5168160782F9A8749
:1015300089874E815F8168858A850E94D80AF80173
:10154000EE55FE4F8081F826F08205C08F5FFF0CBC
:101550008730F9F6D0CF0E94D7099091A101891761
:10156000B1F00E94D7098093A1012A960FB6F89492
:10157000DEBF0FBECDBFDF91CF911F910F91FF90C6
:10158000EF90DF90CF90BF90AF900C9476022A96A8
:101590000FB6F894DEBF0FBECDBFDF91CF911F9184
:1015A0000F91FF90EF90DF90CF90BF90AF90089594
:1015B000CF93DF93CDB7DEB72B970FB6F894DEBF8E
:1015C0000FBECDBF4F83588769877A878B87DE012F
:1015D000119686E0FD0111928A95E9F785E0FE01FA
:1015E000379601900D928A95E1F749815A816B8176
:1015F0007C818D819E810E945D112B960FB6F8949F
:10160000DEBF0FBECDBFDF91CF910895FC01808179
:1016100091810E9431140895CF93882309F49CC0CE
:10162000C82F8238C1F40E94D70981FD95C069E3B3
:101630008091090190910A010E9411160E94BE1426
:101640002FEF81EE94E0215080409040E1F700C000
:10165000000069E319C0833801F50E94D70980FDB5
:101660007BC063E58091090190910A010E941116E7
:101670000E94BE142FEF81EE94E0215080409040F4
:10168000E1F700C0000063E58091090190910A0133
:101690000E941316CF910C94BE148438C1F40E949A
:1016A000D70982FD59C067E48091090190910A0130
:1016B0000E9411160E94BE142FEF81EE94E021507B
:1016C00080409040E1F700C0000067E4DDCF8CEF80
:1016D0008C0F813AD0F46C2F8091090190910A010E
:1016E0000E94DB15882349F06C2F809109019091AD
:1016F0000A010E9413160E94BE146C2F80910901EA
:1017000090910A010E941116C5CF80E28C0F88309B
:1017100048F4C77081E001C0880FCA95EAF70E94BB
:101720007314B8CFEBE5EC0FE33040F4F0E0EA5788
:10173000FE4F808190E0CF910C94EE09C85AC731DA
:1017400058F4EC2FF0E0EE0FFF1FE85AFE4F8081B7
:101750009181CF910C94040ACF910895882309F4C4
:101760005BC0682F823879F40E94D70981FF54C08A
:1017700069E38091090190910A010E9411160E946B
:10178000BE1469E310C08338B1F40E94D70980FF0A
:1017900043C063E58091090190910A010E941116EE
:1017A0000E94BE1463E58091090190910A010E9494
:1017B00013160C94BE14843879F40E94D70982FF62
:1017C0002BC067E48091090190910A010E941116D3
:1017D0000E94BE1467E4E7CF8CEF860F813A18F3BE
:1017E00080E2860F883048F4677081E001C0880F7E
:1017F0006A95EAF70E947914DCCF8BE5860F833077
:1018000020F480E090E00C94EE09685A673120F4EF
:1018100080E090E00C94040A0895CF93C82F0E94B2
:101820000C0BC93349F42FEF87EE93E02150804031
:101830009040E1F700C000008C2FCF910C94AE0BCC
:10184000882321F00E9473140C94BE1408958823F9
:1018500021F00E9479140C94BE140895CF92DF9267
:10186000EF92FF920F931F93CF93DF937C01062F8C
:10187000C72FFC01158112951F70D281D1110E94D2
:1018800090140E946914882399F0DD2389F08C2F2D
:10189000807F803421F080E2800F883048F082E041
:1018A0000E9408150E94691491E0D82ED92601C023
:1018B000D12CCC2EC2948FE0C8228C2D90E0FC015C
:1018C000EA5AFF4F0C94B21D8C2F807FCF70882373
:1018D00011F0C295C07FDD2399F0CC2309F482C1B9
:1018E00080E2800F883010F0011104C08C2F0E941C
:1018F000731403C08C2F0E9483140E94BE1472C103
:10190000802F0E94AE0BCC2309F491C180E2800F9E
:10191000883010F0011104C08C2F0E94791403C08C
:101920008C2F0E9489140E94BE1481C18C2F807F4D
:10193000CF70803211F0C295C07F002319F00130C2
:10194000C9F022C0DD2371F0112341F0113031F4D0
:101950000E94A3148C2B0E94AB1469C10E94A31493
:101960008C2B1DC0112319F0113009F460C10E94A5
:10197000B41425C0DD2321F0163008F058C10EC084
:10198000153008F054C11BC0DD2361F0112331F084
:10199000F701858180FF26C18F7085838C2F0E947F
:1019A000200C45C1112359F0093309F02CC1FFEF78
:1019B00027EE83E0F15020408040E1F722C18C2FD8
:1019C0000E94270C34C18C2F86958695837019F060
:1019D000813061F02CC1DD2321F0802F9C2F93708A
:1019E00002C080E090E00E94EE0929C1DD2321F0D1
:1019F000802F9C2F937002C080E090E00E94040A28
:101A00001EC18C2F837009F045C0D11114C1402F25
:101A1000429546954770440F440F602F6F70862F94
:101A200090E0A0E0B0E0042E04C0880F991FAA1F28
:101A3000BB1F0A94D2F704FF10C00FE010E020E0B3
:101A400030E004C0000F111F221F331F4A95D2F748
:101A5000009510952095309503C000E010E09801A6
:101A6000C695C695C370BC01CD01602B712B822B2E
:101A7000932BC23049F058F4C13019F00E94AE12D5
:101A8000DAC00E949C12D7C00E94C012D4C00E942B
:101A90009A12D1C0DD2319F08C2F817001C0869578
:101AA000882309F4C8C0402F429546954770440FDB
:101AB000440F602F6F70862F90E0A0E0B0E0042EFE
:101AC00004C0880F991FAA1FBB1F0A94D2F704FFF6
:101AD00010C00FE010E020E030E004C0000F111F44
:101AE000221F331F4A95D2F7009510952095309507
:101AF00003C000E010E09801C695C695C370BC0114
:101B0000CD01602B712B822B932BC23049F058F4FE
:101B1000C13019F00E9473138EC00E9461138BC0F4
:101B20000E94851388C00E94D41285C0CF70DD2327
:101B300039F08C2F0E94FA12802F0E94200C7BC05B
:101B4000802F0E94270C8C2F0E941B1374C0023F11
:101B500001F128F4003F41F0013FA1F03FC0033FF5
:101B6000F9F0043F39F13AC0DD2341F0153008F0B7
:101B70005EC08C2F8F710E94401359C0163008F040
:101B800056C0F7CFDD2339F08C2F8F710E94FA12E7
:101B90004EC0DD23C9F38C2F8F710E941B1347C0E9
:101BA000DD2329F08C2F8F710E94E51240C00E9426
:101BB000E0123DC0DD2349F0CF718C2F0E94FA1254
:101BC00063E08C2F0E94F31432C081E00E9408155C
:101BD000123068F182E00E94081529C0DD2331F03F
:101BE000112391F2802F0E940C0B21C0112399F236
:101BF000093349F49FEFE7EEF3E09150E040F04005
:101C0000E1F700C00000802F0E94AE0B10C04C2FE7
:101C10004F70602FC7010E947F020E940B120FC0FD
:101C20004C2F4F70602FC7010E94820208C088EFBE
:101C30008C0D843020F40E94D7090E947602DD20AA
:101C4000C9F00E94651480FD15C0F70112820E9440
:101C50005F140E94FA12C7010E945B0E0E945F147B
:101C6000DF91CF911F910F91FF90EF90DF90CF9078
:101C70000C941B13DF91CF911F910F91FF90EF9068
:101C8000DF90CF9008950F931F93CF93DF93EC01D4
:101C9000688179818A810E943C148C010E9497138B
:101CA0000E948812B801CE010E942E0CDF91CF91C4
:101CB0001F910F910895CF93DF93EC019881898153
:101CC0002B813C81232B31F08F3F31F481E09F3F0A
:101CD00019F403C081E001C080E080FD19C0CE018D
:101CE0000E94320281110CC00E946914882381F085
:101CF0008A81882369F082E0DF91CF910C940815E6
:101D0000CE010E94430ECE01DF91CF910C940E02C2
:101D1000DF91CF9108950E9490140E94A0140E9418
:101D2000BE1480E090E00E94EE0980E090E00C9408
:101D3000040A8091090190910A010E9415160C94E1
:101D40008B0E0E9480140C94990EE92FE295EF708F
:101D50004E2F50E0FA013297EE30F105B0F4EA5917
:101D6000FF4F0C94B21D803F91F018F4883E68F448
:101D70000EC0843F51F40BC0883E48F0813F29F4E7
:101D800006C093FB882780F9089580E0089581E0DC
:101D900008950E9431140E94A50E0895CF93DF93F9
:101DA00000D000D01F92CDB7DEB70F900F900F90EC
:101DB0000F900F90DF91CF910895CF93DF9300D0D4
:101DC00000D000D0CDB7DEB726960FB6F894DEBFB0
:101DD0000FBECDBFDF91CF9108951F93CF93DF93B7
:101DE000C091AD0116E08091AE01C81799F0D0E026
:101DF0001C9FF0011D9FF00D1124E155FE4F408105
:101E0000518162817381848195810E94DD0E2196CA
:101E1000C770E9CFDF91CF911F9108954091DF0105
:101E20005091E0016091E1017091E2018091E30144
:101E30009091E4010C94DD0E0F931F93CF93DF93E9
:101E40008091E40182958F7009F05DC08091E1017D
:101E5000882309F458C08091AD011091AE016091C2
:101E6000DF017091E001C091E201D091E30191E0C6
:101E70006F3F09F090E0292F06E0811709F443C075
:101E8000209721F07F3F21F030E003C031E001C016
:101E9000322F90E030FD34C0089FF001099FF00D13
:101EA0001124DF01A155BE4F11963C9111973713B4
:101EB00027C03C91361324C012963C9112973111E1
:101EC0001FC013964D915C9114974C1B5D0B4837C6
:101ED0005105B0F48091E4018F7080618093E4013A
:101EE000EC54FE4F80818F70806180838FED91E094
:101EF0000E945B0EDF91CF911F910F910C94ED0E1C
:101F000001968770BACFDF91CF911F910F910895FD
:101F10009F92AF92BF92CF92DF92EF92FF920F9378
:101F20001F93CF93DF93CDB7DEB761970FB6F894C9
:101F3000DEBF0FBECDBF8C0185E0F801DE011D962E
:101F400001900D928A95E1F7F80140815181E2807C
:101F50009091DF016091E0012091E2013091E30175
:101F60002115310531F06F3F31F481E09F3F19F4C5
:101F700003C081E001C080E0F82FF1709F2E80FD4A
:101F800046C1F801A380B4808FEDC82E81E0D82E21
:101F9000F090E101F501E21BF30BFF2009F4DFC033
:101FA0008091E401E837F10508F09BC0282F207FDD
:101FB00009F052C0561313C0491311C0FE2CE11092
:101FC0000EC08F7080618093E4010E940E0FC601E5
:101FD0000E945B0E8091E401F801858358C1AB2813
:101FE00031F05F3F31F481E04F3F19F403C081E0ED
:101FF00001C080E080FD03C081E08E2502C080E04A
:1020000090E0F82FF170FF2E80FF1CC08091AD0191
:102010002091AE0136E0821709F417C190E0389F95
:10202000F001399FF00D1124E155FE4F61815613E7
:1020300006C06081461303C06281E61203C00196A8
:102040008770E9CFFE2CEE2009F421C18091E401D4
:1020500081608093E4015AC0561306C0491304C03E
:10206000E11002C0F8019FC04D875E878D859E8577
:102070000E94C90E882379F1EE2069F12091E401D4
:10208000822F82958F7090E0029774F08091DF012B
:102090009091E00198878F831986BB86AA862C874A
:1020A000CE0107960E945B0E86E0F801AFEDB1E02D
:1020B00001900D928A95E1F70E941C0F0E940E0F6D
:1020C0000DC0561729F14D875E878D859E850E942C
:1020D000C90E81112CC0C8010E945B0EFF24F3942D
:1020E000D6C0282F207F69F77A2DB98AA88A6E2D4D
:1020F00089890E94CE0E8FED91E00E945B0E86E0F2
:10210000F60111928A95E9F70E940E0FF12CBFC0DB
:102110004913D9CFE110D7CFF8018583C8010E94B8
:102120005B0E86E0F60111928A95E9F7B0C0EE20C9
:1021300091F22091E401822F82958F7090E00297B6
:102140000CF4B2CF8091DF019091E0019A838983F2
:102150001B82BD82AC822E83CE010196A3CFE837CD
:10216000F10508F047C0FE2CEE2009F4B4CF561359
:1021700030C049132EC02091E40120FD21C0822FE0
:1021800082958F70482F50E041155105C9F0F80134
:1021900025834F30510541F08F5F982F9295907FA6
:1021A000822F8F70892B8583C8010E945B0E86E089
:1021B000F801AFEDB1E001900D928A95E1F742C0D0
:1021C00086E0F801AFEDB1E001900D928A95E1F75C
:1021D0005EC04D875E878D859E850E94C90E8111E8
:1021E00063CF8091E40181608093E401C8010E9483
:1021F0005B0E4DC07A2DB98AA88A6E2D89890E94FE
:10220000CE0E86E0F60111928A95E9F71BC0EE200A
:1022100009F461CF4D875E878D859E850E94C90E2A
:10222000F82E882309F457CF86E0F801AFEDB1E02E
:1022300001900D928A95E1F78FED91E00E94060BD7
:102240000E941C0F0E940E0F22C04D875E878D8555
:102250009E850E943114292F22952F70223028F458
:102260009F7039F0811105C00BC0243028F49F7095
:1022700049F4805E883020F0C8010E945B0E9F2CDC
:10228000F92C05C0F8019581907F99F7F9CF8F2D32
:1022900061960FB6F894DEBF0FBECDBFDF91CF9130
:1022A0001F910F91FF90EF90DF90CF90BF90AF9074
:1022B0009F90089588E790E008951F93CF93DF9350
:1022C000CDB7DEB72C970FB6F894DEBF0FBECDBFEB
:1022D0004F83588769877A878B879C87CE010796BB
:1022E0000E94880F8823D1F09F8188852A853B85AD
:1022F000232B31F08F3F31F481E09F3F19F403C06D
:1023000081E001C080E080FD47C04F81588569852C
:102310007A858B859C850E94DD0E3EC086E0FE019D
:102320003796DE01119601900D928A95E1F7FF81B3
:10233000E8856A857B856115710531F0EF3F31F4E1
:1023400081E0FF3F19F403C081E001C080E080FD1F
:1023500023C02091AE0130E0C90101968770992712
:102360004091AD0150E084179507F1F1F983EA83BC
:102370007D836C8396E0929FD001939FB00D1124D2
:10238000A155BE4FFE01319601900D929A95E1F74D
:102390008093AE010E94ED0E16E08091AD01909108
:1023A000AE01891771F1189FC001112481559E4F0C
:1023B0000E94880F882329F1E091AD011E9FF00152
:1023C0001124E155FE4F40815181628173818481E6
:1023D00095810E94DD0E8091AD0190E0019687709D
:1023E00099278093AD01D9CF0E94A10E1092AE0122
:1023F0001092AD01EFEDF1E086E0DF011D928A95CC
:10240000E9F72C960FB6F894DEBF0FBECDBFDF9173
:10241000CF911F910895EF92FF920F931F93CF9347
:10242000DF938C01892B09F46CC0F12CEE24E3942A
:10243000E8012196F8018491843740F4843008F053
:1024400051C0813081F0823019F15BC0853709F4C9
:1024500044C0A8F19CE7980F903708F052C08F77DE
:102460000E94AE0B41C00E5F1F4FFE01849190E2AF
:10247000980F983050F48770FE2D01C0FF0F8A9599
:10248000EAF78F2F0E94931414C00E940C0B2DC0EA
:102490000E5F1F4FFE01849190E2980F983060F418
:1024A0008770FE2D01C0FF0F8A95EAF78F2F0E94DB
:1024B00099140E94BE1419C00E94AE0B16C00E5F84
:1024C0001F4FFE01C491CC2381F08FE99FE001975B
:1024D000F1F700C00000C150F6CF0E5F1F4FFE01A4
:1024E000F49003C00E940C0B8E018F2D882309F4F9
:1024F0009FCFEFE9FFE03197F1F700C00000815076
:10250000F5CFDF91CF911F910F91FF90EF9008953C
:10251000089508950C9489120C948A120E948C12CA
:102520006093160270931702809318029093190219
:102530000C948B0E0C948E120F931F930091160225
:10254000109117022091180230911902602B712B03
:10255000822B932B1F910F910C948E120F931F932C
:102560000091160210911702209118023091190261
:1025700060237123822393231F910F910C948E1259
:102580000F931F93009116021091170220911802C9
:102590003091190260277127822793271F910F918D
:1025A0000C948E120C9489120E94D2126093120223
:1025B0007093130280931402909315020C948B0E67
:1025C00060E070E0CB010C94D4120F931F9341E0B4
:1025D00050E060E070E08A019B0104C0000F111F11
:1025E000221F331F8A95D2F7C901B8011F910F919D
:1025F0000C94D4120F931F9341E050E060E070E020
:1026000004C0440F551F661F771F8A95D2F780912B
:10261000120290911302A0911402B09115028A0146
:102620009B01082B192B2A2B3B2BC901B8011F91A9
:102630000F910C94D4120F931F9341E050E060E08F
:1026400070E004C0440F551F661F771F8A95D2F7AC
:10265000409550956095709580911202909113026B
:10266000A0911402B09115028A019B01082319233D
:102670002A233B23C901B8011F910F910C94D41256
:102680000F931F9341E050E060E070E004C0440FFE
:10269000551F661F771F8A95D2F78091120290917D
:1026A0001302A0911402B09115028A019B01082720
:1026B00019272A273B27C901B8011F910F910C94B4
:1026C000D4120F931F9300911202109113022091C4
:1026D000140230911502602B712B822B932B1F91CA
:1026E0000F910C94D4120F931F930091120210912A
:1026F000130220911402309115026023712382236A
:1027000093231F910F910C94D4120F931F93009158
:1027100012021091130220911402309115026027C9
:102720007127822793271F910F910C94D41208953B
:1027300027E0929F800D1124E82FE695E695E69517
:10274000877051E001C0550F8A95EAF785E0E89F50
:10275000F0011124EB51FE4F20E030E070E04081A9
:10276000CB01022E02C0969587950A94E2F78170FC
:10277000819584278523842781932F5F3F4F2530C0
:10278000310569F7089527E0929F800D1124682F85
:10279000669566956695982F977085E0689FB0015D
:1027A000112440E050E080E0FB01E40FF51FEB5105
:1027B000FE4F208130E0092E02C0369527950A94FD
:1027C000E2F721703327042E01C0220F0A94EAF7A2
:1027D000822B4F5F5F4F4530510531F70895BF920F
:1027E000CF92DF92EF92FF920F931F93CF93DF93DD
:1027F0008C01C0901202D0901302E0901402F0906D
:1028000015028091160290911702A0911802B091C2
:102810001902C82AD92AEA2AFB2ACFE1D0E0D70137
:10282000C6010C2E04C0B695A795979587950A9476
:10283000D2F780FD04C0219790F7B12C07C0BC2EC1
:10284000B8018C2F0E949E020197A9F38B2DDF9176
:10285000CF911F910F91FF90EF90DF90CF90BF909D
:102860000895CF93DF93EC010E94EF13BE010E9405
:102870009E02DF91CF9108951F93CF93DF93EB01D9
:102880009091AC01992321F0CB010E94311413C027
:10289000882349F0CB010E94EF13182F682FCE0137
:1028A0000E94981304C0CB010E94C313182FBE01CD
:1028B000812F0E949E02DF91CF911F9108958091F8
:1028C0001A02859585958595089580911A028770DD
:1028D000089590911A02977081E009F480E00895BC
:1028E00080912602089590912602892B80932602DA
:1028F0000895809590912602892380932602089559
:1029000010922602089590912502892B809325022A
:10291000089580959091250289238093250208953A
:1029200010922502089590912402892B809324020D
:10293000089580959091240289238093240208951C
:1029400010922402089580911B02089508950C941A
:10295000A6140C94A71490911B02981721F0809351
:102960001B020C94A914089580911B02882329F05E
:1029700010921B0280E00C94A9140895E0910901C3
:10298000F0910A01809126028083E0910901F09183
:102990000A01908180912502892B8083E0910901B1
:1029A000F0910A01908180912402892B808380918B
:1029B0001B02882381F0E0910901F0910A019081C6
:1029C000892B80838091090190910A010E94CF1583
:1029D00081110E94B4148091090190910A010C9414
:1029E000E3090C94A61498E0899F90011124262BEA
:1029F00020931A020E94FA1280911A0285958595F9
:102A000085950C94F11410921A0280E00C94F11444
:102A100020911A028095822380931A02982F977032
:102A200079F430E0482F082E000C550B2417350799
:102A300039F08595859585950E941B130C94031597
:102A4000089580E090E00E94C01D21E08C3E9E4FE2
:102A500009F020E0822F089582E090E00C94B81DE8
:102A600083E090E00C94B81DCF9384E090E00E9446
:102A7000B81DC82F81E290E00E94B81D2C2F30E0D5
:102A8000A901582BCA01CF910895CF93C92F682F60
:102A900084E090E00E94C61D6C2F81E290E0CF910F
:102AA0000C94C61DAB01BC018FE090E00C94D81DC6
:102AB000AB01BC0183E190E00C94D81D60E070E0B4
:102AC000CB010C94581560E070E0CB010E945215C8
:102AD0000C945E156CEE7EEF80E090E00E94E41DA9
:102AE00060E082E090E00E94C61D60E083E090E03C
:102AF0000E94C61D10921602109217021092180220
:102B00001092190260E084E090E00E94C61D60E02F
:102B100081E290E00E94C61D60E085E090E00E94A6
:102B2000C61D60E086E090E00E94C61D6FEF87E062
:102B300090E00E94C61D40E050E0BA0188E090E0BD
:102B40000E94D81D60E08DE090E00E94C61D40E02C
:102B500050E0BA0188E190E00E94D81D60E087E172
:102B600090E00E94C61D40E050E0BA018CE190E088
:102B70000E94D81D60E080E290E00E94C61D40E007
:102B800050E0BA0188E190E00E94D81D0C946315D2
:102B90000C946A15682F8EE090E00C94C61DFC0121
:102BA000329697E080E0915029F021912223D9F3C9
:102BB0008F5FF9CF0895662349F0FC01329608969D
:102BC0002191621729F0E817F907D1F780E00895FD
:102BD00081E008959C01FC0132969FEF80E04191D5
:102BE000461789F09F3F19F4411101C0982F8F5F5C
:102BF0008630A9F79F3F39F0F901E90FF11D97FDE4
:102C0000FA956283089508959C012A5F3F4FFC0165
:102C10004281461301C01282019682179307B9F7C9
:102C200008950C94EA150C940416029626E0FC0113
:102C300011922A95E9F7089508950C941C160C94A6
:102C40001C16CF930E941F160E9422050E941D167B
:102C5000C0E08C2F0E948704811104C0CF5FCA306E
:102C6000C1F701C081E0CF9108950C941C160C941B
:102C700035160E94371680915302843049F1109224
:102C8000280220E488E190E00FB6F894A89580939C
:102C900060000FBE2093600080E00E9476020E94D8
:102CA000371683B7817F846083BF83B7816083BF1A
:102CB0007894889583B78E7F83BF0FB6F894A895D4
:102CC00080916000886180936000109260000FBE68
:102CD00008950C941C160E94A10E0E94D7090E9410
:102CE00076020C9469161F920F920FB60F92112460
:102CF0008F939F93AF93BF9380912802811113C04C
:102D00008091490290914A02A0914B02B0914C02ED
:102D10004196A11DB11D8093490290934A02A09350
:102D20004B02B0934C02BF91AF919F918F910F9046
:102D30000FBE0F901F90189582E084BD93E095BD63
:102D40009AEF97BD80936E0008952FB7F894809105
:102D5000490290914A02A0914B02B0914C022FBFC0
:102D600008959C014FB7F8948091490290914A02CE
:102D7000A0914B02B0914C024FBF821B930B089560
:102D800078941F920F920FB60F9211248F939F93F6
:102D9000AF93BF938091490290914A02A0914B0258
:102DA000B0914C020196A11DB11D809349029093F0
:102DB0004A02A0934B02B0934C02BF91AF919F91F6
:102DC0008F910F900FBE0F901F90189587E797E790
:102DD00090930108809300089AE088E10FB6F89478
:102DE000A895809360000FBE90936000FFCF0E9473
:102DF0002115811102C00E94C8150E942C158093D4
:102E000027020E94341590934E0280934D020E9437
:102E10003015682F70E080E090E00E949A12609177
:102E200012027091130280911402909115020C9479
:102E3000D2128091310208950895CF93DF9300D08C
:102E40001F92CDB7DEB790915302943019F5898364
:102E50007B836A8382E08093E9008FEF9091E800A2
:102E6000815095FD06C095ED9A95F1F7000081110E
:102E7000F5CF8091E80085FF0DC040E050E063E0B1
:102E800070E0CE0101960E9414198091E8008E77BF
:102E90008093E8000F900F900F90DF91CF910895ED
:102EA000BC0184E00C941D17BC0183E00C941D1739
:102EB000CF93DF9321E02093E9002FEF3091E800DA
:102EC000215035FD06C035ED3A95F1F7000021118E
:102ED000F5CF2091E80025FF14C0EC0140E050E060
:102EE00068E070E00E9414198091E8008E7780936A
:102EF000E80088E0FE01A9E2B2E001900D928A9517
:102F0000E1F7DF91CF91089580915202811109C0BC
:102F10000E94A51A0E94021B8091E20084608093A7
:102F2000E2000895109252020895089508950C94B5
:102F30006B1642E061EC81E00E941E1A42E261ECF5
:102F400082E00C941E1A80915502833009F460C00F
:102F500030F4813071F0823009F499C008958A30DC
:102F600009F485C08B3009F46BC0893009F0A7C023
:102F700020C080915402813A09F0A1C08091E800FC
:102F8000877F8093E8008091580290915902892BA5
:102F900021F468E089E292E003C060E080E090E024
:102FA00070E00E945F198091E8008B778093E800C1
:102FB000089580915402813209F081C080915802B5
:102FC00090915902029708F07AC08091E800877FBB
:102FD0008093E8008091E80082FD05C08091530253
:102FE0008111F8CF6CC02091F3008091F20090E045
:102FF000922B029729F48091F1008B7F813021F48C
:103000008091F100809331028091E8008B7753C06A
:1030100080915402813A09F052C0809158029091F7
:103020005902892B09F04BC08091E800877F80937B
:10303000E8008091E80080FFFCCF8091150136C048
:10304000809154028132D9F58091580290915902B1
:10305000892BA9F58091E800877F8093E8000E9482
:10306000531A80915602809315010C94A10E809101
:103070005402813221F58091E800877F8093E80037
:103080000E94531A809157028093320208958091D2
:103090005402813AA1F48091E800877F8093E80090
:1030A0008091E80080FFFCCF809132028093F10094
:1030B0008091E8008E778093E8000C94531A08956D
:1030C00084B7877F84BF0FB6F894A895809160007D
:1030D000886180936000109260000FBE90E080E8ED
:1030E0000FB6F89480936100909361000FBE0E9428
:1030F000300A0E94A51A0E94021B8091E20084609F
:103100008093E20078940E94971D0E94360A8BE01B
:1031100091E00E94D20980915302853069F40E94A7
:103120003916809151028823B1F30E942116882319
:1031300091F30E94FE18EFCF0E943E0A0E94240ADB
:103140000E94230AE8CF0C94A518292F3327233097
:103150003105C9F060F42130310581F022303105AC
:1031600009F044C08BE390E02AE332E043C021320F
:103170003105E1F02232310549F138C082E190E0B9
:1031800025E732E037C099278130910549F028F0D2
:10319000029761F5E4E1F2E005C0E6E3F2E002C087
:1031A000E8E2F2E0849190E09F0124C0611571058E
:1031B00041F061307105D1F489E090E025E632E01C
:1031C00019C089E090E02CE432E014C0611571056B
:1031D00041F06130710551F482E390E027E832E07C
:1031E00009C080E490E029EB32E004C080E090E088
:1031F00020E030E0FA0131832083089580E189BD29
:1032000082E189BD09B400FEFDCF8091D8008F7D99
:103210008093D8008091E00082608093E0008091EC
:10322000E00081FDFCCF0895CF92DF92EF92FF92F4
:103230000F931F93CF93DF93EC018B017A010E94D0
:10324000721A811133C0E114F10439F0F701808161
:103250009181081B190BC80FD91FC12CD12C011546
:10326000110519F18091E80085FD16C08091E800F4
:103270008E778093E800E114F10449F0F701808132
:103280009181C80ED91ED182C08285E00FC00E94F4
:10329000721A882321F30AC089918093F1000150AA
:1032A0001109FFEFCF1ADF0ADACF80E0DF91CF916B
:1032B0001F910F91FF90EF90DF90CF900895209194
:1032C0005A0230915B022617370748F061157105E5
:1032D00039F42091E8002E772093E80001C0B9016D
:1032E000FC0120E06115710579F18091530288237A
:1032F000F1F18530F1F18091E80083FD3CC08091CF
:10330000E80082FD2EC08091E80080FFEBCF209185
:10331000F3008091F20090E0922B6115710551F05D
:103320008830910538F421912093F10061507109A2
:103330000196F3CF21E0089709F020E08091E800A2
:103340008E778093E800CECF2111CFCF0AC0809135
:103350005302882361F0853061F08091E80083FD9D
:103360000AC08091E80082FFF2CF80E0089582E0F9
:10337000089583E0089581E0089520915A023091E4
:103380005B022617370748F06115710539F4209163
:10339000E8002E772093E80001C0B901FC0120E08D
:1033A0006115710591F180915302882309F440C0A1
:1033B000853009F43FC08091E80083FD3DC08091D5
:1033C000E80082FD2FC08091E80080FFE9CF2091C6
:1033D000F3008091F20090E0922B6115710559F095
:1033E0008830910540F424912093F100319661508A
:1033F00071090196F2CF21E0089709F020E0809151
:10340000E8008E778093E800CBCF2111CCCF0AC0A3
:1034100080915302882361F0853061F08091E8004B
:1034200083FD0AC08091E80082FFF2CF80E008951A
:1034300082E0089583E0089581E00895982F973001
:1034400068F59093E900981739F07091EC0020919D
:10345000ED005091F00003C0242F762F50E021FDA5
:1034600002C09F5FECCF3091EB003E7F3093EB00CA
:103470003091ED003D7F3093ED003091EB003160F5
:103480003093EB007093EC002093ED005093F0002C
:103490002091EE0027FDE5CF80E008958F708093A6
:1034A000E90081E008958091540287FF11C0809166
:1034B000E80082FD05C0809153028111F8CF11C050
:1034C0008091E8008B770BC080915302882349F0EC
:1034D0008091E80080FFF8CF8091E8008E7780939C
:1034E000E80008952091E4003091E50095E64091D0
:1034F000EC00842F817040FF23C08091E80080FDA4
:103500001DC080915302882399F0853099F08091F5
:10351000EB0085FD11C04091E4005091E5002417B7
:10352000350729F3915011F09A01E1CF84E0089515
:1035300082E0089583E0089581E0089580E0089591
:103540004091E80042FFDDCF08950E94131B0E94C6
:103550001B1BE0EEF0E0808181608083E8EDF0E00D
:1035600080818F77808319BCA7EDB0E08C918E7F2E
:103570008C9380818F7E80831092520208950F93E6
:103580001F93CF93DF930E94131B0E941B1BC8ED58
:10359000D0E088818F77888388818068888388815C
:1035A0008F7D888319BC1092530210924F021092A3
:1035B00051021092500200EE10E0F80180818B7FE2
:1035C000808388818160888342E060E080E00E949F
:1035D0001E1AE1EEF0E080818E7F8083E2EEF0E063
:1035E000808181608083808188608083F801808110
:1035F0008E7F8083888180618883DF91CF911F9146
:103600000F910895E8EDF0E080818F7E8083E7EDF3
:10361000F0E080818160808384E082BF81E08093DC
:1036200052020C94BF1AE8EDF0E080818E7F808317
:103630001092E20008951092DA001092E1000895CD
:103640001F920F920FB60F9211242F933F934F9317
:103650005F936F937F938F939F93AF93BF93EF93FA
:10366000FF938091E10082FF0BC08091E20082FF16
:1036700007C08091E1008B7F8093E1000E94961D3E
:103680008091DA0080FF1FC08091D80080FF1BC0AE
:103690008091DA008E7F8093DA008091D90080FFDC
:1036A0000DC080E189BD82E189BD09B400FEFDCF76
:1036B00081E0809353020E94841705C019BC1092C8
:1036C00053020E9492178091E10080FF19C08091FF
:1036D000E20080FF15C08091E2008E7F8093E200BF
:1036E0008091E20080618093E2008091D800806246
:1036F0008093D80019BC85E0809353020E949617EE
:103700008091E10084FF30C08091E20084FF2CC0F2
:1037100080E189BD82E189BD09B400FEFDCF8091C1
:10372000D8008F7D8093D8008091E1008F7E8093B8
:10373000E1008091E2008F7E8093E2008091E200C0
:1037400081608093E20080914F02882311F084E031
:1037500007C08091E30087FD02C081E001C083E0E3
:10376000809353020E9497178091E10083FF29C044
:103770008091E20083FF25C08091E100877F8093E4
:10378000E10082E08093530210924F028091E100A9
:103790008E7F8093E1008091E2008E7F8093E20033
:1037A0008091E20080618093E20042E060E080E08E
:1037B0000E941E1A8091F00088608093F0000E94A1
:1037C0009517FF91EF91BF91AF919F918F917F914D
:1037D0006F915F914F913F912F910F900FBE0F907E
:1037E0001F9018951F920F920FB60F9211242F93CE
:1037F0003F934F935F936F937F938F939F93AF9379
:10380000BF93CF93DF93EF93FF93C091E900CF7005
:103810008091EC00D82FD17080FDD0E81092E900A3
:103820008091F000877F8093F00078940E94361C8E
:103830001092E9008091F00088608093F000CD2B19
:10384000CF70C093E900FF91EF91DF91CF91BF91CD
:10385000AF919F918F917F916F915F914F913F9128
:103860002F910F900FBE0F901F9018951F93CF931D
:10387000DF93CDB7DEB7AA970FB6F894DEBF0FBEC1
:10388000CDBFE4E5F2E08091F100819322E0EC35D8
:10389000F207C9F70E94A3178091E80083FF2EC1A9
:1038A0008091540290915502492F50E04A305105C1
:1038B00008F024C1FA01EC58FF4F0C94B21D803877
:1038C00021F0823809F01AC108C08091500290910D
:1038D0005102992389F082600FC0809158028F7045
:1038E000873008F00BC18093E9008091EB0085FBE5
:1038F000882780F91092E9009091E800977F9093D3
:10390000E8008093F1001092F100D1C0282F2D7FA4
:1039100009F0F4C0882319F0823061F0EFC0809183
:103920005602813009F0EAC0933009F080E08093BC
:1039300051022EC08091560281112AC080915802F6
:103940008F702FEF280F263008F0D8C08093E90041
:103950002091EB0020FF1CC0933021F48091EB00FC
:10396000806214C09091EB0090619093EB0021E095
:1039700030E0A90102C0440F551F8A95E2F7409339
:10398000EA001092EA008091EB0088608093EB00DF
:103990001092E9008091E800877F8093E8000E9400
:1039A000531AACC08111AAC0109156021F778091A2
:1039B000E3008078812B8093E3008091E800877F8B
:1039C0008093E8000E94531A8091E80080FFFCCFAA
:1039D0008091E30080688093E300111102C082E0CF
:1039E00001C083E08093530289C08058823008F080
:1039F00085C080915602909157028C3D53E0950707
:103A000079F583E08A838AE289834FB7F894DE01EF
:103A1000139620E03EE051E2E32FF0E05093570090
:103A2000E49120FF03C0E295EF703F5FEF708E2FAF
:103A300090E0EA3010F0C79601C0C0968D939D9338
:103A40002F5F243149F74FBF8091E800877F809333
:103A5000E8006AE270E0CE0101960E945F1916C08C
:103A60006091580270915902AE014F5F5F4F0E9402
:103A7000A318BC01892B09F441C09091E800977FFD
:103A80009093E80089819A810E94BD198091E80095
:103A90008B778093E80032C0803881F58091E80010
:103AA000877F8093E80080914F028093F10080919E
:103AB000E8008E7772CF811121C0809156029091DB
:103AC000570299270297D4F48091E800877F80936A
:103AD000E8008091560280934F020E94531A809111
:103AE0004F02811106C08091E30087FD02C081E092
:103AF00001C084E0809353020E9499178091E800EE
:103B000083FF0AC08091E800877F8093E80080915E
:103B1000EB0080628093EB00AA960FB6F894DEBFAC
:103B20000FBECDBFDF91CF911F9108950895CF9320
:103B3000809153028823A1F0C091E900CF70909149
:103B4000EC00892F817090FD80E8C82B1092E9006D
:103B50008091E80083FD0E94361CCF70C093E9007D
:103B6000CF910895EE0FFF1F0590F491E02D099479
:103B7000F999FECF92BD81BDF89A992780B5089535
:103B8000A8E1B0E042E050E00C94EC1D262FF9993A
:103B9000FECF92BD81BDF89A019700B4021639F0AC
:103BA0001FBA20BD0FB6F894FA9AF99A0FBE08957D
:103BB0000396272F0E94C71D0E94C61D252F0E9415
:103BC000C71D242F0C94C71D0196272F0E94C71DC7
:103BD0000C94C61DDC01CB01FC01F999FECF06C097
:103BE000F2BDE1BDF89A319600B40D9241505040BB
:083BF000B8F70895F894FFCF27
:103BF800018F010090010590011C02191758171C2C
:103C0800175417501701E200E900EA00B500B600A2
:103C1800B700CD008301CC008A01920194012102F2
:103C2800230224022502260227022A02B300B40036
:103C38006F007000818283F4F5F6F7313332949780
:103C4800C634350000000000E200E900EA00B500D3
:103C5800B600B700CD008301CC008A01920194011F
:103C68002102230224022502260227022A02B30087
:0A3C7800B4006F0070008182830029
:00000001FF
